:100000005CC0000080C000007EC000007CC000001A
:100010007AC0000078C0000076C0000074C0000004
:1000200072C0000070C000006EC000006CC0000014
:100030006AC0000068C0000066C0000064C0000024
:10004000E0C4000060C0000062C2000092C2000074
:100050005AC0000058C0000056C0000054C0000044
:1000600052C0000050C00000000000080002010063
:100070000003040700000000000000000102040863
:100080001020408001020408102001020408102002
:10009000040404040404040402020202020203032E
:1000A0000303030300000000250028002B000000CC
:1000B0000000240027002A00E70211241FBECFEF12
:1000C000D8E0DEBFCDBF11E0A0E0B1E0ECEBF1E1A4
:1000D00002C005900D92AA34B107D9F721E0AAE435
:1000E000B1E001C01D92A03FB207E1F710E0CAEBFA
:1000F000D0E003C02297FE013CD6C83BD107D1F720
:1001000076D40C94DC087CCFCF9326E040E855E20F
:1001100060E070E08AE491E09AD1C2E061E08C2F67
:1001200095D560E08C2FCBD5CF5FC530B9F7CF9197
:100130000895CF92DF92EF92FF928EE041D57C013D
:1001400061E071E08AE491E0C3D24AE050E0B70197
:100150008AE491E05CD3B701882777FD8095982FDA
:1001600010D720E030E040E85AE3BFD720E030E08D
:1001700040EA50E4BAD76B017C0160E171E08AE4A7
:1001800091E0A6D222E030E0B701A6018AE491E036
:100190001CD420E030E040E05FE3C701B601EDD5BC
:1001A00020E030E048EC52E4A0D76B017C016AE12A
:1001B00071E08AE491E08CD222E030E0B701A60140
:1001C0008AE491E003D42AE939E941EC51E4C7011A
:1001D000B60138D687FF02C060E013C02AE939E9CA
:1001E00041ED51E4C701B6017CD787FD16C02AE96D
:1001F00039E941EE51E4C701B60124D687FF0DC0AD
:1002000061E082E05CD560E083E059D560E084E0A5
:10021000FF90EF90DF90CF9052C52AE939E941EE87
:1002200051E4C701B6015DD787FD0EC02AE939E95F
:1002300041EF51E4C701B60105D687FF05C061E073
:1002400082E03DD561E0E0CF2AE939E941EF51E4B0
:10025000C701B60146D787FD11C02DEC3CEC40E04C
:1002600052E4C701B601EED587FF08C061E082E025
:1002700026D561E083E023D561E0C9CF61E070E07D
:1002800080E090E0FF90EF90DF90CF9027C4FC01DA
:10029000818D228D90E0805C9F4F821B91098F732E
:1002A00099270895FC01918D828D981731F0828DE8
:1002B000E80FF11D858D90E008958FEF9FEF089571
:1002C000FC01918D828D981761F0828DDF01A80F5E
:1002D000B11D5D968C91928D9F5F9F73928F90E080
:1002E00008958FEF9FEF08958EED92E0892B41F0F6
:1002F00080E090E0892B21F061D181110C94000005
:100300000895FC01848DDF01A80FB11DA35ABF4FD2
:100310002C91848D90E001968F739927848FA68904
:10032000B7892C93A089B1898C9180648C93938D2B
:10033000848D981306C00288F389E02D80818F7D1B
:1003400080830895CF93DF93EC01888D8823C1F0DB
:10035000EA89FB89808185FD05C0A889B9898C91CE
:1003600086FD0EC00FB607FCF5CF808185FFF2CF6A
:10037000A889B9898C9185FFEDCFCE01C2DFE8CF86
:10038000DF91CF910895CF92DF92FF920F931F9349
:10039000CF93DF931F92CDB7DEB76C0181E0D6011A
:1003A00058968C9358975B969C915B975C968C9132
:1003B0005C97981307C05096ED91FC9151978081FE
:1003C00085FD2DC0F601038D10E00F5F1F4F0F73E9
:1003D0001127F02EF601848DF81210C00FB607FC1D
:1003E000F9CFD6015096ED91FC915197808185FF10
:1003F000F1CFC601698385DF6981ECCF838DE80F7A
:10040000F11DE35AFF4F6083D6015B960C935B9717
:100410005296ED91FC915397808180620CC0D60179
:100420005696ED91FC91579760835096ED91FC9113
:10043000519780818064808381E090E00F90DF910C
:10044000CF911F910F91FF90DF90CF900895BF92B1
:10045000CF92DF92EF92FF92CF93DF93EC016A018C
:100460007B01B22EE889F98982E08083411581EE13
:1004700058076105710599F060E079E08DE390E03F
:10048000A701960152D421503109410951095695CD
:10049000479537952795211580E1380790F0E88931
:1004A000F989108260E874E88EE190E0A701960176
:1004B0003CD421503109410951095695479537954A
:1004C0002795EC85FD853083EE85FF852083188E8A
:1004D000EC89FD89B082EA89FB8980818061808313
:1004E000EA89FB89808188608083EA89FB89808131
:1004F00080688083EA89FB8980818F7D8083DF919A
:10050000CF91FF90EF90DF90CF90BF9008951F9212
:100510000F920FB60F9211242F938F939F93EF9307
:10052000FF93E0915A01F0915B018081E0916001BD
:10053000F091610182FD12C09081809163018F5F13
:100540008F7320916401821751F0E0916301F0E014
:10055000E65BFE4F958F8093630101C08081FF9120
:10056000EF919F918F912F910F900FBE0F901F9041
:1005700018951F920F920FB60F9211242F933F934D
:100580004F935F936F937F938F939F93AF93BF939B
:10059000EF93FF938AE491E0B4DEFF91EF91BF9176
:1005A000AF919F918F917F916F915F914F913F910B
:1005B0002F910F900FBE0F901F9018958AE491E035
:1005C00066DE21E0892B09F420E0822F0895109245
:1005D0004D0110924C0188EE93E0A0E0B0E08093D2
:1005E0004E0190934F01A0935001B09351018CE2C2
:1005F00091E090934B0180934A0185EC90E09093B9
:1006000057018093560184EC90E0909359018093B8
:10061000580180EC90E090935B0180935A0181EC4B
:1006200090E090935D0180935C0182EC90E0909368
:100630005F0180935E0186EC90E09093610180936E
:100640006001109263011092640110926501109292
:1006500066010895CF92DF92EF92FF920F931F935E
:10066000CF93DF937C016A01EB0100E010E00C15F1
:100670001D0571F06991D701ED91FC910190F08118
:10068000E02DC7010995892B19F00F5F1F4FEFCFA0
:10069000C801DF91CF911F910F91FF90EF90DF90F4
:1006A000CF9008956115710581F0DB010D90002058
:1006B000E9F7AD0141505109461B570BDC01ED91A3
:1006C000FC910280F381E02D099480E090E0089590
:1006D000E9CFDC01ED91FC910190F081E02D0994CE
:1006E00068E371E0DFCF8F929F92AF92BF92DF926B
:1006F000EF92FF920F931F93CF93DF93CDB7DEB7A7
:10070000A1970FB6F894DEBF0FBECDBF7C01F42FCA
:10071000D52ECB0119A2223008F42AE08E010F5DFC
:100720001F4F822E912CA12CB12C6F2F7D2DA50156
:100730009401FBD2F22FD32ECA01015011096A3065
:1007400014F4E0E301C0E7E3E60FD801EC93232BB8
:10075000242B252B51F7B801C701A4DFA1960FB6B2
:10076000F894DEBF0FBECDBFDF91CF911F910F91E7
:10077000FF90EF90DF90BF90AF909F908F90089583
:10078000CF92DF92EF92FF920F931F93CF93DF935D
:10079000EC016A017B012115310579F4E881F981C9
:1007A0000190F081E02D642FDF91CF911F910F9187
:1007B000FF90EF90DF90CF9009942A303105D9F463
:1007C00077FF18C06DE285DF8C0144275527BA01F9
:1007D0004C195D096E097F092AE0CE0184DF800F84
:1007E000911FDF91CF911F910F91FF90EF90DF90BC
:1007F000CF9008952AE0B701A601CE01DF91CF91F5
:100800001F910F91FF90EF90DF90CF906CCF9A01E6
:10081000AB01662757FD6095762FB2CF4F925F925E
:100820006F927F928F929F92AF92BF92CF92DF9200
:10083000EF92FF920F931F93CF93DF93EC016A0126
:100840007B01B22E9A01AB01C701B601B1D4882356
:1008500019F06BE371E024C026013701E89477F8C2
:100860002FEF3FEF4FE75FE7C301B201A1D4811142
:100870000CC02FEF3FEF4FE75FE7C301B201E2D2B9
:1008800018161CF46FE371E00BC02FEF3FEF4FE73A
:100890005FE4C701B60125D41816A4F463E471E03F
:1008A000CE01DF91CF911F910F91FF90EF90DF90DC
:1008B000CF90BF90AF909F908F907F906F905F9000
:1008C0004F90F0CE2FEF3FEF4FE75FECC701B6013F
:1008D000B9D287FDE3CF20E030E0A901C701B6011E
:1008E000B1D287FF09C06DE2CE01F3DE8C01F7FAC9
:1008F000F094F7F8F09402C000E010E0A12C60E062
:1009000070E080E09FE3AB1439F020E030E040E29B
:1009100051E49CD2A394F7CF9B01AC01C701B6016F
:100920002DD26B017C01FFD22B013C0128D39B010E
:10093000AC01C701B60121D26B017C012AE0B301F1
:10094000A201CE01D0DE080F191FBB2031F067E4F1
:1009500071E0CE01A7DE080F191F7B2C772019F15B
:1009600020E030E040E251E4C701B601BED36B01A4
:100970007C01D4D24B01AA2497FCA094BA2C2AE083
:1009800030E0B501A401CE01FBDE080F191FC5013F
:10099000B401F7D29B01AC01C701B601EED16B01E6
:1009A0007C017A94DBCFC801DF91CF911F910F9129
:1009B000FF90EF90DF90CF90BF90AF909F908F907F
:1009C0007F906F905F904F90089528CF0F931F9363
:1009D000CF93DF93EC0122DF8C01CE0181DE800F0B
:1009E000911FDF91CF911F910F9108950895ADD080
:1009F000FDDF8ADBC4E7D1E09CDB2097E9F374DC00
:100A0000FBCF1F920F920FB60F9211242F933F939B
:100A10008F939F93AF93BF938091E8019091E901E9
:100A2000A091EA01B091EB013091E70123E0230F9F
:100A30002D3720F40196A11DB11D05C026E8230F16
:100A40000296A11DB11D2093E7018093E8019093C8
:100A5000E901A093EA01B093EB018091EC01909140
:100A6000ED01A091EE01B091EF010196A11DB11D24
:100A70008093EC019093ED01A093EE01B093EF0110
:100A8000BF91AF919F918F913F912F910F900FBE8A
:100A90000F901F9018953FB7F8948091EC019091BA
:100AA000ED01A091EE01B091EF0126B5A89B05C024
:100AB0002F3F19F00196A11DB11D3FBF6627782F6A
:100AC000892F9A2F620F711D811D911D42E0660FC3
:100AD000771F881F991F4A95D1F708958F929F928B
:100AE000AF92BF92CF92DF92EF92FF926B017C01A7
:100AF000D2DF4B015C01C114D104E104F104E1F047
:100B000013D1C9DF681979098A099B09683E7340C6
:100B10008105910580F321E0C21AD108E108F108AE
:100B200088EE880E83E0981EA11CB11CC114D1046C
:100B3000E104F10431F7DFCFFF90EF90DF90CF9029
:100B4000BF90AF909F908F900895789484B5826005
:100B500084BD84B5816084BD85B5826085BD85B561
:100B6000816085BDEEE6F0E0808181608083E1E810
:100B7000F0E0108280818260808380818160808348
:100B8000E0E8F0E0808181608083E1EBF0E080814B
:100B900084608083E0EBF0E0808181608083EAE71D
:100BA000F0E08081846080838081826080838081A6
:100BB000816080838081806880831092C100089565
:100BC0008E3008F08E5087702091000190E4299FAC
:100BD00090011124822B80937C0080917A008064A4
:100BE00080937A0080917A0086FDFCCF8091780016
:100BF0002091790090E0922B0895833081F028F4C1
:100C0000813099F08230A1F008958730A9F08830C2
:100C1000B9F08430D1F4809180008F7D03C0809141
:100C200080008F7780938000089584B58F7702C00D
:100C300084B58F7D84BD08958091B0008F7703C007
:100C40008091B0008F7D8093B0000895CF93DF93A3
:100C500090E0FC01E458FF4F2491FC01E057FF4F66
:100C60008491882349F190E0880F991FFC01E25597
:100C7000FF4FA591B4918C559F4FFC01C591D49124
:100C80009FB7611108C0F8948C91209582238C93B2
:100C9000888182230AC0623051F4F8948C91322FFB
:100CA000309583238C938881822B888304C0F894A9
:100CB0008C91822B8C939FBFDF91CF9108950F93DE
:100CC0001F93CF93DF931F92CDB7DEB7282F30E06D
:100CD000F901E859FF4F8491F901E458FF4F14914D
:100CE000F901E057FF4F04910023C1F0882319F068
:100CF000698383DF6981E02FF0E0EE0FFF1FEC5581
:100D0000FF4FA591B4919FB7F8948C91611103C0E6
:100D10001095812301C0812B8C939FBF0F90DF9191
:100D2000CF911F910F9108950895A1E21A2EAA1B49
:100D3000BB1BFD010DC0AA1FBB1FEE1FFF1FA2178B
:100D4000B307E407F50720F0A21BB30BE40BF50B88
:100D5000661F771F881F991F1A9469F76095709511
:100D6000809590959B01AC01BD01CF010895EE0FD8
:100D7000FF1F0590F491E02D09945058BB27AA2736
:100D80000ED075C166D130F06BD120F031F49F3FA9
:100D900011F41EF45BC10EF4E095E7FB51C1E92F9D
:100DA00077D180F3BA17620773078407950718F0A5
:100DB00071F49EF58FC10EF4E0950B2EBA2FA02D85
:100DC0000B01B90190010C01CA01A0011124FF27F8
:100DD000591B99F0593F50F4503E68F11A16F040F3
:100DE000A22F232F342F4427585FF3CF46953795F2
:100DF0002795A795F0405395C9F77EF41F16BA0BB7
:100E0000620B730B840BBAF09150A1F0FF0FBB1F64
:100E1000661F771F881FC2F70EC0BA0F621F731FAD
:100E2000841F48F4879577956795B795F7959E3F0A
:100E300008F0B3CF9395880F08F09927EE0F979598
:100E400087950895D9D008F481E008950CD00FC19A
:100E500007D140F0FED030F021F45F3F19F0F0C030
:100E6000511139C1F3C014D198F39923C9F3552313
:100E7000B1F3951B550BBB27AA276217730784078D
:100E800038F09F5F5F4F220F331F441FAA1FA9F343
:100E900033D00E2E3AF0E0E830D091505040E69535
:100EA000001CCAF729D0FE2F27D0660F771F881F96
:100EB000BB1F261737074807AB07B0E809F0BB0B85
:100EC000802DBF01FF2793585F4F2AF09E3F5105A9
:100ED00068F0B6C000C15F3FECF3983EDCF3869546
:100EE00077956795B795F7959F5FC9F7880F911D1F
:100EF0009695879597F90895E1E0660F771F881F0B
:100F0000BB1F621773078407BA0720F0621B730BBD
:100F1000840BBA0BEE1F88F7E095089504D068940F
:100F2000B111D9C00895BCD088F09F5790F0B92F67
:100F30009927B751A0F0D1F0660F771F881F991F2E
:100F40001AF0BA95C9F712C0B13081F0C3D0B1E040
:100F50000895C0C0672F782F8827B85F39F0B93F50
:100F6000CCF3869577956795B395D9F73EF4909530
:100F70008095709561957F4F8F4F9F4F0895E894AE
:100F800009C097FB3EF490958095709561957F4FD1
:100F90008F4F9F4F9923A9F0F92F96E9BB2793957F
:100FA000F695879577956795B795F111F8CFFAF48F
:100FB000BB0F11F460FF1BC06F5F7F4F8F4F9F4FC0
:100FC00016C0882311F096E911C0772321F09EE81E
:100FD000872F762F05C0662371F096E8862F70E084
:100FE00060E02AF09A95660F771F881FDAF7880F5E
:100FF0009695879597F90895990F0008550FAA0BB4
:10100000E0E8FEEF16161706E807F907C0F012161B
:101010001306E407F50798F0621B730B840B950B1E
:1010200039F40A2661F0232B242B252B21F4089573
:101030000A2609F4A140A6958FEF811D811D089510
:1010400097F99F6780E870E060E008959FEF80EC7B
:10105000089500240A94161617061806090608951E
:1010600000240A9412161306140605060895092E84
:101070000394000C11F4882352F0BB0F40F4BF2BF3
:1010800011F460FF04C06F5F7F4F8F4F9F4F089533
:1010900057FD9058440F551F59F05F3F71F0479529
:1010A000880F97FB991F61F09F3F79F0879508950E
:1010B000121613061406551FF2CF4695F1DF08C02D
:1010C000161617061806991FF1CF8695710561054A
:1010D00008940895E894BB2766277727CB0197F9F2
:1010E00008958ADF08F48FEF08950BD0C0CFB1DFE9
:1010F00028F0B6DF18F0952309F0A2CFA7CF11246E
:10110000EACFC6DFA0F3959FD1F3950F50E0551FAE
:10111000629FF001729FBB27F00DB11D639FAA274C
:10112000F00DB11DAA1F649F6627B00DA11D661F9B
:10113000829F2227B00DA11D621F739FB00DA11DBC
:10114000621F839FA00D611D221F749F3327A00D76
:10115000611D231F849F600D211D822F762F6A2F12
:1011600011249F5750408AF0E1F088234AF0EE0F97
:10117000FF1FBB1F661F771F881F91505040A9F7A4
:101180009E3F510570F05CCFA6CF5F3FECF3983ED9
:10119000DCF3869577956795B795F795E7959F5F0B
:1011A000C1F7FE2B880F911D9695879597F90895A5
:0C11B00023DF880B990B0895F894FFCF03
:1011BC000153656E736F722056616C75653A200031
:1011CC002C20566F6C74733A20002C206465677267
:1011DC0065657320433A200000000000C3012A0318
:1011EC00470160015201A2010D0A006E616E006997
:0A11FC006E66006F7666002E00009C
:00000001FF
